{
  "address": "0x8F6A22E7f68deA7869FCc81724B67B1C78374F7E",
  "abi": [
    {
      "inputs": [
        {
          "internalType": "address",
          "name": "vrfCoordinatorV2",
          "type": "address"
        },
        {
          "internalType": "uint256",
          "name": "subscriptionId",
          "type": "uint256"
        },
        {
          "internalType": "bytes32",
          "name": "gasLane",
          "type": "bytes32"
        },
        {
          "internalType": "uint32",
          "name": "callbackGasLimit",
          "type": "uint32"
        },
        {
          "internalType": "string[3]",
          "name": "dogTokenUris",
          "type": "string[3]"
        },
        {
          "internalType": "uint256",
          "name": "mintFee",
          "type": "uint256"
        }
      ],
      "stateMutability": "nonpayable",
      "type": "constructor"
    },
    {
      "inputs": [
        {
          "internalType": "address",
          "name": "have",
          "type": "address"
        },
        {
          "internalType": "address",
          "name": "want",
          "type": "address"
        }
      ],
      "name": "OnlyCoordinatorCanFulfill",
      "type": "error"
    },
    {
      "inputs": [],
      "name": "RandomIpfsNft_RangeOutOfBounds",
      "type": "error"
    },
    {
      "inputs": [],
      "name": "RandomIpfsNft__NeedMoreEthSent",
      "type": "error"
    },
    {
      "inputs": [],
      "name": "RandomIpfsNft__TransactionFailed",
      "type": "error"
    },
    {
      "anonymous": false,
      "inputs": [
        {
          "indexed": true,
          "internalType": "address",
          "name": "owner",
          "type": "address"
        },
        {
          "indexed": true,
          "internalType": "address",
          "name": "approved",
          "type": "address"
        },
        {
          "indexed": true,
          "internalType": "uint256",
          "name": "tokenId",
          "type": "uint256"
        }
      ],
      "name": "Approval",
      "type": "event"
    },
    {
      "anonymous": false,
      "inputs": [
        {
          "indexed": true,
          "internalType": "address",
          "name": "owner",
          "type": "address"
        },
        {
          "indexed": true,
          "internalType": "address",
          "name": "operator",
          "type": "address"
        },
        {
          "indexed": false,
          "internalType": "bool",
          "name": "approved",
          "type": "bool"
        }
      ],
      "name": "ApprovalForAll",
      "type": "event"
    },
    {
      "anonymous": false,
      "inputs": [
        {
          "indexed": false,
          "internalType": "uint256",
          "name": "_fromTokenId",
          "type": "uint256"
        },
        {
          "indexed": false,
          "internalType": "uint256",
          "name": "_toTokenId",
          "type": "uint256"
        }
      ],
      "name": "BatchMetadataUpdate",
      "type": "event"
    },
    {
      "anonymous": false,
      "inputs": [
        {
          "indexed": false,
          "internalType": "uint256",
          "name": "_tokenId",
          "type": "uint256"
        }
      ],
      "name": "MetadataUpdate",
      "type": "event"
    },
    {
      "anonymous": false,
      "inputs": [
        {
          "indexed": false,
          "internalType": "enum RandomIpfsNft.Breed",
          "name": "dogBreed",
          "type": "uint8"
        },
        {
          "indexed": false,
          "internalType": "address",
          "name": "minter",
          "type": "address"
        }
      ],
      "name": "NftMinted",
      "type": "event"
    },
    {
      "anonymous": false,
      "inputs": [
        {
          "indexed": true,
          "internalType": "uint256",
          "name": "requestId",
          "type": "uint256"
        },
        {
          "indexed": false,
          "internalType": "address",
          "name": "requester",
          "type": "address"
        }
      ],
      "name": "NftRequested",
      "type": "event"
    },
    {
      "anonymous": false,
      "inputs": [
        {
          "indexed": true,
          "internalType": "address",
          "name": "previousOwner",
          "type": "address"
        },
        {
          "indexed": true,
          "internalType": "address",
          "name": "newOwner",
          "type": "address"
        }
      ],
      "name": "OwnershipTransferred",
      "type": "event"
    },
    {
      "anonymous": false,
      "inputs": [
        {
          "indexed": true,
          "internalType": "address",
          "name": "from",
          "type": "address"
        },
        {
          "indexed": true,
          "internalType": "address",
          "name": "to",
          "type": "address"
        },
        {
          "indexed": true,
          "internalType": "uint256",
          "name": "tokenId",
          "type": "uint256"
        }
      ],
      "name": "Transfer",
      "type": "event"
    },
    {
      "inputs": [
        {
          "internalType": "address",
          "name": "to",
          "type": "address"
        },
        {
          "internalType": "uint256",
          "name": "tokenId",
          "type": "uint256"
        }
      ],
      "name": "approve",
      "outputs": [],
      "stateMutability": "nonpayable",
      "type": "function"
    },
    {
      "inputs": [
        {
          "internalType": "address",
          "name": "owner",
          "type": "address"
        }
      ],
      "name": "balanceOf",
      "outputs": [
        {
          "internalType": "uint256",
          "name": "",
          "type": "uint256"
        }
      ],
      "stateMutability": "view",
      "type": "function"
    },
    {
      "inputs": [
        {
          "internalType": "uint256",
          "name": "tokenId",
          "type": "uint256"
        }
      ],
      "name": "getApproved",
      "outputs": [
        {
          "internalType": "address",
          "name": "",
          "type": "address"
        }
      ],
      "stateMutability": "view",
      "type": "function"
    },
    {
      "inputs": [
        {
          "internalType": "uint256",
          "name": "moddedRng",
          "type": "uint256"
        }
      ],
      "name": "getBreedFromModdedRng",
      "outputs": [
        {
          "internalType": "enum RandomIpfsNft.Breed",
          "name": "",
          "type": "uint8"
        }
      ],
      "stateMutability": "pure",
      "type": "function"
    },
    {
      "inputs": [],
      "name": "getChanceArray",
      "outputs": [
        {
          "internalType": "uint256[3]",
          "name": "",
          "type": "uint256[3]"
        }
      ],
      "stateMutability": "pure",
      "type": "function"
    },
    {
      "inputs": [],
      "name": "getMintFee",
      "outputs": [
        {
          "internalType": "uint256",
          "name": "",
          "type": "uint256"
        }
      ],
      "stateMutability": "view",
      "type": "function"
    },
    {
      "inputs": [],
      "name": "getTokenCounter",
      "outputs": [
        {
          "internalType": "uint256",
          "name": "",
          "type": "uint256"
        }
      ],
      "stateMutability": "view",
      "type": "function"
    },
    {
      "inputs": [
        {
          "internalType": "uint256",
          "name": "index",
          "type": "uint256"
        }
      ],
      "name": "getTokenUri",
      "outputs": [
        {
          "internalType": "string",
          "name": "",
          "type": "string"
        }
      ],
      "stateMutability": "view",
      "type": "function"
    },
    {
      "inputs": [
        {
          "internalType": "address",
          "name": "owner",
          "type": "address"
        },
        {
          "internalType": "address",
          "name": "operator",
          "type": "address"
        }
      ],
      "name": "isApprovedForAll",
      "outputs": [
        {
          "internalType": "bool",
          "name": "",
          "type": "bool"
        }
      ],
      "stateMutability": "view",
      "type": "function"
    },
    {
      "inputs": [],
      "name": "name",
      "outputs": [
        {
          "internalType": "string",
          "name": "",
          "type": "string"
        }
      ],
      "stateMutability": "view",
      "type": "function"
    },
    {
      "inputs": [],
      "name": "owner",
      "outputs": [
        {
          "internalType": "address",
          "name": "",
          "type": "address"
        }
      ],
      "stateMutability": "view",
      "type": "function"
    },
    {
      "inputs": [
        {
          "internalType": "uint256",
          "name": "tokenId",
          "type": "uint256"
        }
      ],
      "name": "ownerOf",
      "outputs": [
        {
          "internalType": "address",
          "name": "",
          "type": "address"
        }
      ],
      "stateMutability": "view",
      "type": "function"
    },
    {
      "inputs": [
        {
          "internalType": "uint256",
          "name": "requestId",
          "type": "uint256"
        },
        {
          "internalType": "uint256[]",
          "name": "randomWords",
          "type": "uint256[]"
        }
      ],
      "name": "rawFulfillRandomWords",
      "outputs": [],
      "stateMutability": "nonpayable",
      "type": "function"
    },
    {
      "inputs": [],
      "name": "renounceOwnership",
      "outputs": [],
      "stateMutability": "nonpayable",
      "type": "function"
    },
    {
      "inputs": [],
      "name": "requestNft",
      "outputs": [
        {
          "internalType": "uint256",
          "name": "requestId",
          "type": "uint256"
        }
      ],
      "stateMutability": "payable",
      "type": "function"
    },
    {
      "inputs": [
        {
          "internalType": "uint256",
          "name": "",
          "type": "uint256"
        }
      ],
      "name": "s_requestIdToSender",
      "outputs": [
        {
          "internalType": "address",
          "name": "",
          "type": "address"
        }
      ],
      "stateMutability": "view",
      "type": "function"
    },
    {
      "inputs": [],
      "name": "s_tokenCounter",
      "outputs": [
        {
          "internalType": "uint256",
          "name": "",
          "type": "uint256"
        }
      ],
      "stateMutability": "view",
      "type": "function"
    },
    {
      "inputs": [
        {
          "internalType": "address",
          "name": "from",
          "type": "address"
        },
        {
          "internalType": "address",
          "name": "to",
          "type": "address"
        },
        {
          "internalType": "uint256",
          "name": "tokenId",
          "type": "uint256"
        }
      ],
      "name": "safeTransferFrom",
      "outputs": [],
      "stateMutability": "nonpayable",
      "type": "function"
    },
    {
      "inputs": [
        {
          "internalType": "address",
          "name": "from",
          "type": "address"
        },
        {
          "internalType": "address",
          "name": "to",
          "type": "address"
        },
        {
          "internalType": "uint256",
          "name": "tokenId",
          "type": "uint256"
        },
        {
          "internalType": "bytes",
          "name": "data",
          "type": "bytes"
        }
      ],
      "name": "safeTransferFrom",
      "outputs": [],
      "stateMutability": "nonpayable",
      "type": "function"
    },
    {
      "inputs": [
        {
          "internalType": "address",
          "name": "operator",
          "type": "address"
        },
        {
          "internalType": "bool",
          "name": "approved",
          "type": "bool"
        }
      ],
      "name": "setApprovalForAll",
      "outputs": [],
      "stateMutability": "nonpayable",
      "type": "function"
    },
    {
      "inputs": [
        {
          "internalType": "bytes4",
          "name": "interfaceId",
          "type": "bytes4"
        }
      ],
      "name": "supportsInterface",
      "outputs": [
        {
          "internalType": "bool",
          "name": "",
          "type": "bool"
        }
      ],
      "stateMutability": "view",
      "type": "function"
    },
    {
      "inputs": [],
      "name": "symbol",
      "outputs": [
        {
          "internalType": "string",
          "name": "",
          "type": "string"
        }
      ],
      "stateMutability": "view",
      "type": "function"
    },
    {
      "inputs": [
        {
          "internalType": "uint256",
          "name": "tokenId",
          "type": "uint256"
        }
      ],
      "name": "tokenURI",
      "outputs": [
        {
          "internalType": "string",
          "name": "",
          "type": "string"
        }
      ],
      "stateMutability": "view",
      "type": "function"
    },
    {
      "inputs": [
        {
          "internalType": "address",
          "name": "from",
          "type": "address"
        },
        {
          "internalType": "address",
          "name": "to",
          "type": "address"
        },
        {
          "internalType": "uint256",
          "name": "tokenId",
          "type": "uint256"
        }
      ],
      "name": "transferFrom",
      "outputs": [],
      "stateMutability": "nonpayable",
      "type": "function"
    },
    {
      "inputs": [
        {
          "internalType": "address",
          "name": "newOwner",
          "type": "address"
        }
      ],
      "name": "transferOwnership",
      "outputs": [],
      "stateMutability": "nonpayable",
      "type": "function"
    },
    {
      "inputs": [],
      "name": "withdraw",
      "outputs": [],
      "stateMutability": "nonpayable",
      "type": "function"
    }
  ],
  "transactionHash": "0x4b029e27b954b09664dfcb21fafc813a0649304752af21bf6af17f90cc4183e8",
  "args": [
    "0x271682DEB8C4E0901D1a1550aD2e64D568E69909",
    "77678542385516141816133419229143635616884930192284636755840530237628042779329",
    "0x474e34a077df58807dbe9c96d3c009b23b3c6d0cce433e59bbf5b34f823bc56c",
    "500000",
    [
      "ipfs://QmQs4yASJakykKzcUYiJoQEFptCuufghNA3S5J2CkD47tp",
      "ipfs://QmXry9jwWVKfbt6V87Gzd97WJ5LGAmtyWY7znSQXCRysv9",
      "ipfs://QmX5V7Xc31vMfM8tYgrNefix1WCFmiMqpLzjDtk6PgTQd2"
    ],
    "10000000000000000"
  ],
  "numDeployments": 1,
  "solcInputHash": "455211ab4ab6f47de1378a0528c311c5",
  "bytecode": "0x6101406040523480156200001257600080fd5b50604051620047ee380380620047ee8339818101604052810190620000389190620006f6565b6040518060400160405280600f81526020017f52616e646f6d2049706673204e465400000000000000000000000000000000008152506040518060400160405280600381526020017f52494e0000000000000000000000000000000000000000000000000000000000815250878073ffffffffffffffffffffffffffffffffffffffff1660808173ffffffffffffffffffffffffffffffffffffffff1681525050508160009081620000eb9190620009f2565b508060019081620000fd9190620009f2565b5050506200012062000114620001a260201b60201c565b620001aa60201b60201c565b8573ffffffffffffffffffffffffffffffffffffffff1660a08173ffffffffffffffffffffffffffffffffffffffff16815250508460c081815250508360e081815250508263ffffffff166101008163ffffffff16815250508160099060036200018c92919062000270565b5080610120818152505050505050505062000ad9565b600033905090565b6000600760009054906101000a900473ffffffffffffffffffffffffffffffffffffffff16905081600760006101000a81548173ffffffffffffffffffffffffffffffffffffffff021916908373ffffffffffffffffffffffffffffffffffffffff1602179055508173ffffffffffffffffffffffffffffffffffffffff168173ffffffffffffffffffffffffffffffffffffffff167f8be0079c531659141344cd1fd0a4f28419497f9722a3daafe3b4186f6b6457e060405160405180910390a35050565b828054828255906000526020600020908101928215620002bd579160200282015b82811115620002bc578251829081620002ab9190620009f2565b509160200191906001019062000291565b5b509050620002cc9190620002d0565b5090565b5b80821115620002f45760008181620002ea9190620002f8565b50600101620002d1565b5090565b5080546200030690620007eb565b6000825580601f106200031a57506200033b565b601f0160209004906000526020600020908101906200033a91906200033e565b5b50565b5b80821115620003595760008160009055506001016200033f565b5090565b6000604051905090565b600080fd5b600080fd5b600073ffffffffffffffffffffffffffffffffffffffff82169050919050565b60006200039e8262000371565b9050919050565b620003b08162000391565b8114620003bc57600080fd5b50565b600081519050620003d081620003a5565b92915050565b6000819050919050565b620003eb81620003d6565b8114620003f757600080fd5b50565b6000815190506200040b81620003e0565b92915050565b6000819050919050565b620004268162000411565b81146200043257600080fd5b50565b60008151905062000446816200041b565b92915050565b600063ffffffff82169050919050565b62000467816200044c565b81146200047357600080fd5b50565b60008151905062000487816200045c565b92915050565b600080fd5b6000601f19601f8301169050919050565b7f4e487b7100000000000000000000000000000000000000000000000000000000600052604160045260246000fd5b620004dd8262000492565b810181811067ffffffffffffffff82111715620004ff57620004fe620004a3565b5b80604052505050565b6000620005146200035d565b9050620005228282620004d2565b919050565b600067ffffffffffffffff821115620005455762000544620004a3565b5b602082029050919050565b600080fd5b600080fd5b600067ffffffffffffffff821115620005785762000577620004a3565b5b620005838262000492565b9050602081019050919050565b60005b83811015620005b057808201518184015260208101905062000593565b60008484015250505050565b6000620005d3620005cd846200055a565b62000508565b905082815260208101848484011115620005f257620005f162000555565b5b620005ff84828562000590565b509392505050565b600082601f8301126200061f576200061e6200048d565b5b815162000631848260208601620005bc565b91505092915050565b6000620006516200064b8462000527565b62000508565b905080602084028301858111156200066e576200066d62000550565b5b835b81811015620006bc57805167ffffffffffffffff8111156200069757620006966200048d565b5b808601620006a6898262000607565b8552602085019450505060208101905062000670565b5050509392505050565b600082601f830112620006de57620006dd6200048d565b5b6003620006ed8482856200063a565b91505092915050565b60008060008060008060c0878903121562000716576200071562000367565b5b60006200072689828a01620003bf565b96505060206200073989828a01620003fa565b95505060406200074c89828a0162000435565b94505060606200075f89828a0162000476565b935050608087015167ffffffffffffffff8111156200078357620007826200036c565b5b6200079189828a01620006c6565b92505060a0620007a489828a01620003fa565b9150509295509295509295565b600081519050919050565b7f4e487b7100000000000000000000000000000000000000000000000000000000600052602260045260246000fd5b600060028204905060018216806200080457607f821691505b6020821081036200081a5762000819620007bc565b5b50919050565b60008190508160005260206000209050919050565b60006020601f8301049050919050565b600082821b905092915050565b600060088302620008847fffffffffffffffffffffffffffffffffffffffffffffffffffffffffffffffff8262000845565b62000890868362000845565b95508019841693508086168417925050509392505050565b6000819050919050565b6000620008d3620008cd620008c784620003d6565b620008a8565b620003d6565b9050919050565b6000819050919050565b620008ef83620008b2565b62000907620008fe82620008da565b84845462000852565b825550505050565b600090565b6200091e6200090f565b6200092b818484620008e4565b505050565b5b8181101562000953576200094760008262000914565b60018101905062000931565b5050565b601f821115620009a2576200096c8162000820565b620009778462000835565b8101602085101562000987578190505b6200099f620009968562000835565b83018262000930565b50505b505050565b600082821c905092915050565b6000620009c760001984600802620009a7565b1980831691505092915050565b6000620009e28383620009b4565b9150826002028217905092915050565b620009fd82620007b1565b67ffffffffffffffff81111562000a195762000a18620004a3565b5b62000a258254620007eb565b62000a3282828562000957565b600060209050601f83116001811462000a6a576000841562000a55578287015190505b62000a618582620009d4565b86555062000ad1565b601f19841662000a7a8662000820565b60005b8281101562000aa45784890151825560018201915060208501945060208101905062000a7d565b8683101562000ac4578489015162000ac0601f891682620009b4565b8355505b6001600288020188555050505b505050505050565b60805160a05160c05160e0516101005161012051613cb762000b3760003960008181610c170152610ed601526000610fb001526000610f6c01526000610f8d01526000610f3001526000818161089b01526108ef0152613cb76000f3fe6080604052600436106101815760003560e01c8063715018a6116100d1578063a36f573b1161008a578063b88d4fde11610064578063b88d4fde14610577578063c87b56dd146105a0578063e985e9c5146105dd578063f2fde38b1461061a57610181565b8063a36f573b146104df578063a51cccf31461051c578063aa1524911461055957610181565b8063715018a6146103e15780637a5caab3146103f85780638ad91345146104235780638da5cb5b1461046057806395d89b411461048b578063a22cb465146104b657610181565b806323b872dd1161013e5780635dacf5f4116101185780635dacf5f4146103115780636352211e1461033c5780636e02007d1461037957806370a08231146103a457610181565b806323b872dd146102a85780633ccfd60b146102d157806342842e0e146102e857610181565b806301ffc9a71461018657806306fdde03146101c3578063081812fc146101ee578063095ea7b31461022b5780630b21a83b146102545780631fe543e31461027f575b600080fd5b34801561019257600080fd5b506101ad60048036038101906101a89190612679565b610643565b6040516101ba91906126c1565b60405180910390f35b3480156101cf57600080fd5b506101d86106a4565b6040516101e5919061276c565b60405180910390f35b3480156101fa57600080fd5b50610215600480360381019061021091906127c4565b610736565b6040516102229190612832565b60405180910390f35b34801561023757600080fd5b50610252600480360381019061024d9190612879565b61077c565b005b34801561026057600080fd5b50610269610893565b60405161027691906128c8565b60405180910390f35b34801561028b57600080fd5b506102a660048036038101906102a19190612a2b565b610899565b005b3480156102b457600080fd5b506102cf60048036038101906102ca9190612a87565b610959565b005b3480156102dd57600080fd5b506102e66109b9565b005b3480156102f457600080fd5b5061030f600480360381019061030a9190612a87565b610a6d565b005b34801561031d57600080fd5b50610326610a8d565b6040516103339190612b85565b60405180910390f35b34801561034857600080fd5b50610363600480360381019061035e91906127c4565b610ab8565b6040516103709190612832565b60405180910390f35b34801561038557600080fd5b5061038e610b3e565b60405161039b91906128c8565b60405180910390f35b3480156103b057600080fd5b506103cb60048036038101906103c69190612ba0565b610b48565b6040516103d891906128c8565b60405180910390f35b3480156103ed57600080fd5b506103f6610bff565b005b34801561040457600080fd5b5061040d610c13565b60405161041a91906128c8565b60405180910390f35b34801561042f57600080fd5b5061044a600480360381019061044591906127c4565b610c3b565b604051610457919061276c565b60405180910390f35b34801561046c57600080fd5b50610475610ceb565b6040516104829190612832565b60405180910390f35b34801561049757600080fd5b506104a0610d15565b6040516104ad919061276c565b60405180910390f35b3480156104c257600080fd5b506104dd60048036038101906104d89190612bf9565b610da7565b005b3480156104eb57600080fd5b50610506600480360381019061050191906127c4565b610dbd565b6040516105139190612832565b60405180910390f35b34801561052857600080fd5b50610543600480360381019061053e91906127c4565b610df0565b6040516105509190612cb0565b60405180910390f35b610561610ed2565b60405161056e91906128c8565b60405180910390f35b34801561058357600080fd5b5061059e60048036038101906105999190612d80565b6110c3565b005b3480156105ac57600080fd5b506105c760048036038101906105c291906127c4565b611125565b6040516105d4919061276c565b60405180910390f35b3480156105e957600080fd5b5061060460048036038101906105ff9190612e03565b611237565b60405161061191906126c1565b60405180910390f35b34801561062657600080fd5b50610641600480360381019061063c9190612ba0565b6112cb565b005b6000634906490660e01b7bffffffffffffffffffffffffffffffffffffffffffffffffffffffff1916827bffffffffffffffffffffffffffffffffffffffffffffffffffffffff1916148061069d575061069c8261134e565b5b9050919050565b6060600080546106b390612e72565b80601f01602080910402602001604051908101604052809291908181526020018280546106df90612e72565b801561072c5780601f106107015761010080835404028352916020019161072c565b820191906000526020600020905b81548152906001019060200180831161070f57829003601f168201915b5050505050905090565b600061074182611430565b6004600083815260200190815260200160002060009054906101000a900473ffffffffffffffffffffffffffffffffffffffff169050919050565b600061078782610ab8565b90508073ffffffffffffffffffffffffffffffffffffffff168373ffffffffffffffffffffffffffffffffffffffff16036107f7576040517f08c379a00000000000000000000000000000000000000000000000000000000081526004016107ee90612f15565b60405180910390fd5b8073ffffffffffffffffffffffffffffffffffffffff1661081661147b565b73ffffffffffffffffffffffffffffffffffffffff16148061084557506108448161083f61147b565b611237565b5b610884576040517f08c379a000000000000000000000000000000000000000000000000000000000815260040161087b90612fa7565b60405180910390fd5b61088e8383611483565b505050565b600a5481565b7f000000000000000000000000000000000000000000000000000000000000000073ffffffffffffffffffffffffffffffffffffffff163373ffffffffffffffffffffffffffffffffffffffff161461094b57337f00000000000000000000000000000000000000000000000000000000000000006040517f1cf993f4000000000000000000000000000000000000000000000000000000008152600401610942929190612fc7565b60405180910390fd5b610955828261153c565b5050565b61096a61096461147b565b826116d9565b6109a9576040517f08c379a00000000000000000000000000000000000000000000000000000000081526004016109a090613062565b60405180910390fd5b6109b483838361176e565b505050565b6109c1611a67565b600047905060003373ffffffffffffffffffffffffffffffffffffffff16826040516109ec906130b3565b60006040518083038185875af1925050503d8060008114610a29576040519150601f19603f3d011682016040523d82523d6000602084013e610a2e565b606091505b5050905080610a69576040517f47a2918400000000000000000000000000000000000000000000000000000000815260040160405180910390fd5b5050565b610a88838383604051806020016040528060008152506110c3565b505050565b610a956125eb565b6040518060600160405280600a8152602001601e81526020016064815250905090565b600080610ac483611ae5565b9050600073ffffffffffffffffffffffffffffffffffffffff168173ffffffffffffffffffffffffffffffffffffffff1603610b35576040517f08c379a0000000000000000000000000000000000000000000000000000000008152600401610b2c90613114565b60405180910390fd5b80915050919050565b6000600a54905090565b60008073ffffffffffffffffffffffffffffffffffffffff168273ffffffffffffffffffffffffffffffffffffffff1603610bb8576040517f08c379a0000000000000000000000000000000000000000000000000000000008152600401610baf906131a6565b60405180910390fd5b600360008373ffffffffffffffffffffffffffffffffffffffff1673ffffffffffffffffffffffffffffffffffffffff168152602001908152602001600020549050919050565b610c07611a67565b610c116000611b22565b565b60007f0000000000000000000000000000000000000000000000000000000000000000905090565b606060098281548110610c5157610c506131c6565b5b906000526020600020018054610c6690612e72565b80601f0160208091040260200160405190810160405280929190818152602001828054610c9290612e72565b8015610cdf5780601f10610cb457610100808354040283529160200191610cdf565b820191906000526020600020905b815481529060010190602001808311610cc257829003601f168201915b50505050509050919050565b6000600760009054906101000a900473ffffffffffffffffffffffffffffffffffffffff16905090565b606060018054610d2490612e72565b80601f0160208091040260200160405190810160405280929190818152602001828054610d5090612e72565b8015610d9d5780601f10610d7257610100808354040283529160200191610d9d565b820191906000526020600020905b815481529060010190602001808311610d8057829003601f168201915b5050505050905090565b610db9610db261147b565b8383611be8565b5050565b60086020528060005260406000206000915054906101000a900473ffffffffffffffffffffffffffffffffffffffff1681565b600080600090506000610e01610a8d565b905060005b6003811015610e9a57828510158015610e405750818160038110610e2d57610e2c6131c6565b5b602002015183610e3d9190613224565b85105b15610e6257806002811115610e5857610e57612c39565b5b9350505050610ecd565b818160038110610e7557610e746131c6565b5b602002015183610e859190613224565b92508080610e9290613258565b915050610e06565b506040517f2b8299b500000000000000000000000000000000000000000000000000000000815260040160405180910390fd5b919050565b60007f0000000000000000000000000000000000000000000000000000000000000000341015610f2e576040517ff64fbfee00000000000000000000000000000000000000000000000000000000815260040160405180910390fd5b7f000000000000000000000000000000000000000000000000000000000000000073ffffffffffffffffffffffffffffffffffffffff16635d3b1d307f00000000000000000000000000000000000000000000000000000000000000007f000000000000000000000000000000000000000000000000000000000000000060037f000000000000000000000000000000000000000000000000000000000000000060016040518663ffffffff1660e01b8152600401610ff1959493929190613318565b6020604051808303816000875af1158015611010573d6000803e3d6000fd5b505050506040513d601f19601f820116820180604052508101906110349190613380565b9050336008600083815260200190815260200160002060006101000a81548173ffffffffffffffffffffffffffffffffffffffff021916908373ffffffffffffffffffffffffffffffffffffffff160217905550807ff873236e6cc0ecc5be1a9a35c95ee5b8d1ac4cc7bfef0cc5060391d6cc98e26b336040516110b89190612832565b60405180910390a290565b6110d46110ce61147b565b836116d9565b611113576040517f08c379a000000000000000000000000000000000000000000000000000000000815260040161110a90613062565b60405180910390fd5b61111f84848484611d54565b50505050565b606061113082611430565b600060066000848152602001908152602001600020805461115090612e72565b80601f016020809104026020016040519081016040528092919081815260200182805461117c90612e72565b80156111c95780601f1061119e576101008083540402835291602001916111c9565b820191906000526020600020905b8154815290600101906020018083116111ac57829003601f168201915b5050505050905060006111da611db0565b905060008151036111ef578192505050611232565b60008251111561122457808260405160200161120c9291906133e9565b60405160208183030381529060405292505050611232565b61122d84611dc7565b925050505b919050565b6000600560008473ffffffffffffffffffffffffffffffffffffffff1673ffffffffffffffffffffffffffffffffffffffff16815260200190815260200160002060008373ffffffffffffffffffffffffffffffffffffffff1673ffffffffffffffffffffffffffffffffffffffff16815260200190815260200160002060009054906101000a900460ff16905092915050565b6112d3611a67565b600073ffffffffffffffffffffffffffffffffffffffff168173ffffffffffffffffffffffffffffffffffffffff1603611342576040517f08c379a00000000000000000000000000000000000000000000000000000000081526004016113399061347f565b60405180910390fd5b61134b81611b22565b50565b60007f80ac58cd000000000000000000000000000000000000000000000000000000007bffffffffffffffffffffffffffffffffffffffffffffffffffffffff1916827bffffffffffffffffffffffffffffffffffffffffffffffffffffffff1916148061141957507f5b5e139f000000000000000000000000000000000000000000000000000000007bffffffffffffffffffffffffffffffffffffffffffffffffffffffff1916827bffffffffffffffffffffffffffffffffffffffffffffffffffffffff1916145b80611429575061142882611e2f565b5b9050919050565b61143981611e99565b611478576040517f08c379a000000000000000000000000000000000000000000000000000000000815260040161146f90613114565b60405180910390fd5b50565b600033905090565b816004600083815260200190815260200160002060006101000a81548173ffffffffffffffffffffffffffffffffffffffff021916908373ffffffffffffffffffffffffffffffffffffffff160217905550808273ffffffffffffffffffffffffffffffffffffffff166114f683610ab8565b73ffffffffffffffffffffffffffffffffffffffff167f8c5be1e5ebec7d5bd14f71427d1e84f3dd0314c0f7b2291e5b200ac8c7c3b92560405160405180910390a45050565b60006008600084815260200190815260200160002060009054906101000a900473ffffffffffffffffffffffffffffffffffffffff1690506000600a5490506000606484600081518110611593576115926131c6565b5b60200260200101516115a591906134ce565b905060006115b282610df0565b90506115be8484611eda565b6116808360098360028111156115d7576115d6612c39565b5b815481106115e8576115e76131c6565b5b9060005260206000200180546115fd90612e72565b80601f016020809104026020016040519081016040528092919081815260200182805461162990612e72565b80156116765780601f1061164b57610100808354040283529160200191611676565b820191906000526020600020905b81548152906001019060200180831161165957829003601f168201915b5050505050611ef8565b600a600081548092919061169390613258565b91905055507f8a269f26b688e110e9cbd887d163dab35cae678fa353a0292de532c0cac1ecdc81856040516116c99291906134ff565b60405180910390a1505050505050565b6000806116e583610ab8565b90508073ffffffffffffffffffffffffffffffffffffffff168473ffffffffffffffffffffffffffffffffffffffff16148061172757506117268185611237565b5b8061176557508373ffffffffffffffffffffffffffffffffffffffff1661174d84610736565b73ffffffffffffffffffffffffffffffffffffffff16145b91505092915050565b8273ffffffffffffffffffffffffffffffffffffffff1661178e82610ab8565b73ffffffffffffffffffffffffffffffffffffffff16146117e4576040517f08c379a00000000000000000000000000000000000000000000000000000000081526004016117db9061359a565b60405180910390fd5b600073ffffffffffffffffffffffffffffffffffffffff168273ffffffffffffffffffffffffffffffffffffffff1603611853576040517f08c379a000000000000000000000000000000000000000000000000000000000815260040161184a9061362c565b60405180910390fd5b6118608383836001611f9c565b8273ffffffffffffffffffffffffffffffffffffffff1661188082610ab8565b73ffffffffffffffffffffffffffffffffffffffff16146118d6576040517f08c379a00000000000000000000000000000000000000000000000000000000081526004016118cd9061359a565b60405180910390fd5b6004600082815260200190815260200160002060006101000a81549073ffffffffffffffffffffffffffffffffffffffff02191690556001600360008573ffffffffffffffffffffffffffffffffffffffff1673ffffffffffffffffffffffffffffffffffffffff168152602001908152602001600020600082825403925050819055506001600360008473ffffffffffffffffffffffffffffffffffffffff1673ffffffffffffffffffffffffffffffffffffffff16815260200190815260200160002060008282540192505081905550816002600083815260200190815260200160002060006101000a81548173ffffffffffffffffffffffffffffffffffffffff021916908373ffffffffffffffffffffffffffffffffffffffff160217905550808273ffffffffffffffffffffffffffffffffffffffff168473ffffffffffffffffffffffffffffffffffffffff167fddf252ad1be2c89b69c2b068fc378daa952ba7f163c4a11628f55a4df523b3ef60405160405180910390a4611a628383836001611fa2565b505050565b611a6f61147b565b73ffffffffffffffffffffffffffffffffffffffff16611a8d610ceb565b73ffffffffffffffffffffffffffffffffffffffff1614611ae3576040517f08c379a0000000000000000000000000000000000000000000000000000000008152600401611ada90613698565b60405180910390fd5b565b60006002600083815260200190815260200160002060009054906101000a900473ffffffffffffffffffffffffffffffffffffffff169050919050565b6000600760009054906101000a900473ffffffffffffffffffffffffffffffffffffffff16905081600760006101000a81548173ffffffffffffffffffffffffffffffffffffffff021916908373ffffffffffffffffffffffffffffffffffffffff1602179055508173ffffffffffffffffffffffffffffffffffffffff168173ffffffffffffffffffffffffffffffffffffffff167f8be0079c531659141344cd1fd0a4f28419497f9722a3daafe3b4186f6b6457e060405160405180910390a35050565b8173ffffffffffffffffffffffffffffffffffffffff168373ffffffffffffffffffffffffffffffffffffffff1603611c56576040517f08c379a0000000000000000000000000000000000000000000000000000000008152600401611c4d90613704565b60405180910390fd5b80600560008573ffffffffffffffffffffffffffffffffffffffff1673ffffffffffffffffffffffffffffffffffffffff16815260200190815260200160002060008473ffffffffffffffffffffffffffffffffffffffff1673ffffffffffffffffffffffffffffffffffffffff16815260200190815260200160002060006101000a81548160ff0219169083151502179055508173ffffffffffffffffffffffffffffffffffffffff168373ffffffffffffffffffffffffffffffffffffffff167f17307eab39ab6107e8899845ad3d59bd9653f200f220920489ca2b5937696c3183604051611d4791906126c1565b60405180910390a3505050565b611d5f84848461176e565b611d6b84848484611fa8565b611daa576040517f08c379a0000000000000000000000000000000000000000000000000000000008152600401611da190613796565b60405180910390fd5b50505050565b606060405180602001604052806000815250905090565b6060611dd282611430565b6000611ddc611db0565b90506000815111611dfc5760405180602001604052806000815250611e27565b80611e068461212f565b604051602001611e179291906133e9565b6040516020818303038152906040525b915050919050565b60007f01ffc9a7000000000000000000000000000000000000000000000000000000007bffffffffffffffffffffffffffffffffffffffffffffffffffffffff1916827bffffffffffffffffffffffffffffffffffffffffffffffffffffffff1916149050919050565b60008073ffffffffffffffffffffffffffffffffffffffff16611ebb83611ae5565b73ffffffffffffffffffffffffffffffffffffffff1614159050919050565b611ef48282604051806020016040528060008152506121fd565b5050565b611f0182611e99565b611f40576040517f08c379a0000000000000000000000000000000000000000000000000000000008152600401611f3790613828565b60405180910390fd5b80600660008481526020019081526020016000209081611f6091906139f4565b507ff8e1a15aba9398e019f0b49df1a4fde98ee17ae345cb5f6b5e2c27f5033e8ce782604051611f9091906128c8565b60405180910390a15050565b50505050565b50505050565b6000611fc98473ffffffffffffffffffffffffffffffffffffffff16612258565b15612122578373ffffffffffffffffffffffffffffffffffffffff1663150b7a02611ff261147b565b8786866040518563ffffffff1660e01b81526004016120149493929190613b1b565b6020604051808303816000875af192505050801561205057506040513d601f19601f8201168201806040525081019061204d9190613b7c565b60015b6120d2573d8060008114612080576040519150601f19603f3d011682016040523d82523d6000602084013e612085565b606091505b5060008151036120ca576040517f08c379a00000000000000000000000000000000000000000000000000000000081526004016120c190613796565b60405180910390fd5b805181602001fd5b63150b7a0260e01b7bffffffffffffffffffffffffffffffffffffffffffffffffffffffff1916817bffffffffffffffffffffffffffffffffffffffffffffffffffffffff191614915050612127565b600190505b949350505050565b60606000600161213e8461227b565b01905060008167ffffffffffffffff81111561215d5761215c6128e8565b5b6040519080825280601f01601f19166020018201604052801561218f5781602001600182028036833780820191505090505b509050600082602001820190505b6001156121f2578080600190039150507f3031323334353637383961626364656600000000000000000000000000000000600a86061a8153600a85816121e6576121e561349f565b5b0494506000850361219d575b819350505050919050565b61220783836123ce565b6122146000848484611fa8565b612253576040517f08c379a000000000000000000000000000000000000000000000000000000000815260040161224a90613796565b60405180910390fd5b505050565b6000808273ffffffffffffffffffffffffffffffffffffffff163b119050919050565b600080600090507a184f03e93ff9f4daa797ed6e38ed64bf6a1f01000000000000000083106122d9577a184f03e93ff9f4daa797ed6e38ed64bf6a1f01000000000000000083816122cf576122ce61349f565b5b0492506040810190505b6d04ee2d6d415b85acef81000000008310612316576d04ee2d6d415b85acef8100000000838161230c5761230b61349f565b5b0492506020810190505b662386f26fc10000831061234557662386f26fc10000838161233b5761233a61349f565b5b0492506010810190505b6305f5e100831061236e576305f5e10083816123645761236361349f565b5b0492506008810190505b61271083106123935761271083816123895761238861349f565b5b0492506004810190505b606483106123b657606483816123ac576123ab61349f565b5b0492506002810190505b600a83106123c5576001810190505b80915050919050565b600073ffffffffffffffffffffffffffffffffffffffff168273ffffffffffffffffffffffffffffffffffffffff160361243d576040517f08c379a000000000000000000000000000000000000000000000000000000000815260040161243490613bf5565b60405180910390fd5b61244681611e99565b15612486576040517f08c379a000000000000000000000000000000000000000000000000000000000815260040161247d90613c61565b60405180910390fd5b612494600083836001611f9c565b61249d81611e99565b156124dd576040517f08c379a00000000000000000000000000000000000000000000000000000000081526004016124d490613c61565b60405180910390fd5b6001600360008473ffffffffffffffffffffffffffffffffffffffff1673ffffffffffffffffffffffffffffffffffffffff16815260200190815260200160002060008282540192505081905550816002600083815260200190815260200160002060006101000a81548173ffffffffffffffffffffffffffffffffffffffff021916908373ffffffffffffffffffffffffffffffffffffffff160217905550808273ffffffffffffffffffffffffffffffffffffffff16600073ffffffffffffffffffffffffffffffffffffffff167fddf252ad1be2c89b69c2b068fc378daa952ba7f163c4a11628f55a4df523b3ef60405160405180910390a46125e7600083836001611fa2565b5050565b6040518060600160405280600390602082028036833780820191505090505090565b6000604051905090565b600080fd5b600080fd5b60007fffffffff0000000000000000000000000000000000000000000000000000000082169050919050565b61265681612621565b811461266157600080fd5b50565b6000813590506126738161264d565b92915050565b60006020828403121561268f5761268e612617565b5b600061269d84828501612664565b91505092915050565b60008115159050919050565b6126bb816126a6565b82525050565b60006020820190506126d660008301846126b2565b92915050565b600081519050919050565b600082825260208201905092915050565b60005b838110156127165780820151818401526020810190506126fb565b60008484015250505050565b6000601f19601f8301169050919050565b600061273e826126dc565b61274881856126e7565b93506127588185602086016126f8565b61276181612722565b840191505092915050565b600060208201905081810360008301526127868184612733565b905092915050565b6000819050919050565b6127a18161278e565b81146127ac57600080fd5b50565b6000813590506127be81612798565b92915050565b6000602082840312156127da576127d9612617565b5b60006127e8848285016127af565b91505092915050565b600073ffffffffffffffffffffffffffffffffffffffff82169050919050565b600061281c826127f1565b9050919050565b61282c81612811565b82525050565b60006020820190506128476000830184612823565b92915050565b61285681612811565b811461286157600080fd5b50565b6000813590506128738161284d565b92915050565b600080604083850312156128905761288f612617565b5b600061289e85828601612864565b92505060206128af858286016127af565b9150509250929050565b6128c28161278e565b82525050565b60006020820190506128dd60008301846128b9565b92915050565b600080fd5b7f4e487b7100000000000000000000000000000000000000000000000000000000600052604160045260246000fd5b61292082612722565b810181811067ffffffffffffffff8211171561293f5761293e6128e8565b5b80604052505050565b600061295261260d565b905061295e8282612917565b919050565b600067ffffffffffffffff82111561297e5761297d6128e8565b5b602082029050602081019050919050565b600080fd5b60006129a76129a284612963565b612948565b905080838252602082019050602084028301858111156129ca576129c961298f565b5b835b818110156129f357806129df88826127af565b8452602084019350506020810190506129cc565b5050509392505050565b600082601f830112612a1257612a116128e3565b5b8135612a22848260208601612994565b91505092915050565b60008060408385031215612a4257612a41612617565b5b6000612a50858286016127af565b925050602083013567ffffffffffffffff811115612a7157612a7061261c565b5b612a7d858286016129fd565b9150509250929050565b600080600060608486031215612aa057612a9f612617565b5b6000612aae86828701612864565b9350506020612abf86828701612864565b9250506040612ad0868287016127af565b9150509250925092565b600060039050919050565b600081905092915050565b6000819050919050565b612b038161278e565b82525050565b6000612b158383612afa565b60208301905092915050565b6000602082019050919050565b612b3781612ada565b612b418184612ae5565b9250612b4c82612af0565b8060005b83811015612b7d578151612b648782612b09565b9650612b6f83612b21565b925050600181019050612b50565b505050505050565b6000606082019050612b9a6000830184612b2e565b92915050565b600060208284031215612bb657612bb5612617565b5b6000612bc484828501612864565b91505092915050565b612bd6816126a6565b8114612be157600080fd5b50565b600081359050612bf381612bcd565b92915050565b60008060408385031215612c1057612c0f612617565b5b6000612c1e85828601612864565b9250506020612c2f85828601612be4565b9150509250929050565b7f4e487b7100000000000000000000000000000000000000000000000000000000600052602160045260246000fd5b60038110612c7957612c78612c39565b5b50565b6000819050612c8a82612c68565b919050565b6000612c9a82612c7c565b9050919050565b612caa81612c8f565b82525050565b6000602082019050612cc56000830184612ca1565b92915050565b600080fd5b600067ffffffffffffffff821115612ceb57612cea6128e8565b5b612cf482612722565b9050602081019050919050565b82818337600083830152505050565b6000612d23612d1e84612cd0565b612948565b905082815260208101848484011115612d3f57612d3e612ccb565b5b612d4a848285612d01565b509392505050565b600082601f830112612d6757612d666128e3565b5b8135612d77848260208601612d10565b91505092915050565b60008060008060808587031215612d9a57612d99612617565b5b6000612da887828801612864565b9450506020612db987828801612864565b9350506040612dca878288016127af565b925050606085013567ffffffffffffffff811115612deb57612dea61261c565b5b612df787828801612d52565b91505092959194509250565b60008060408385031215612e1a57612e19612617565b5b6000612e2885828601612864565b9250506020612e3985828601612864565b9150509250929050565b7f4e487b7100000000000000000000000000000000000000000000000000000000600052602260045260246000fd5b60006002820490506001821680612e8a57607f821691505b602082108103612e9d57612e9c612e43565b5b50919050565b7f4552433732313a20617070726f76616c20746f2063757272656e74206f776e6560008201527f7200000000000000000000000000000000000000000000000000000000000000602082015250565b6000612eff6021836126e7565b9150612f0a82612ea3565b604082019050919050565b60006020820190508181036000830152612f2e81612ef2565b9050919050565b7f4552433732313a20617070726f76652063616c6c6572206973206e6f7420746f60008201527f6b656e206f776e6572206f7220617070726f76656420666f7220616c6c000000602082015250565b6000612f91603d836126e7565b9150612f9c82612f35565b604082019050919050565b60006020820190508181036000830152612fc081612f84565b9050919050565b6000604082019050612fdc6000830185612823565b612fe96020830184612823565b9392505050565b7f4552433732313a2063616c6c6572206973206e6f7420746f6b656e206f776e6560008201527f72206f7220617070726f76656400000000000000000000000000000000000000602082015250565b600061304c602d836126e7565b915061305782612ff0565b604082019050919050565b6000602082019050818103600083015261307b8161303f565b9050919050565b600081905092915050565b50565b600061309d600083613082565b91506130a88261308d565b600082019050919050565b60006130be82613090565b9150819050919050565b7f4552433732313a20696e76616c696420746f6b656e2049440000000000000000600082015250565b60006130fe6018836126e7565b9150613109826130c8565b602082019050919050565b6000602082019050818103600083015261312d816130f1565b9050919050565b7f4552433732313a2061646472657373207a65726f206973206e6f74206120766160008201527f6c6964206f776e65720000000000000000000000000000000000000000000000602082015250565b60006131906029836126e7565b915061319b82613134565b604082019050919050565b600060208201905081810360008301526131bf81613183565b9050919050565b7f4e487b7100000000000000000000000000000000000000000000000000000000600052603260045260246000fd5b7f4e487b7100000000000000000000000000000000000000000000000000000000600052601160045260246000fd5b600061322f8261278e565b915061323a8361278e565b9250828201905080821115613252576132516131f5565b5b92915050565b60006132638261278e565b91507fffffffffffffffffffffffffffffffffffffffffffffffffffffffffffffffff8203613295576132946131f5565b5b600182019050919050565b6000819050919050565b6132b3816132a0565b82525050565b600067ffffffffffffffff82169050919050565b6132d6816132b9565b82525050565b600061ffff82169050919050565b6132f3816132dc565b82525050565b600063ffffffff82169050919050565b613312816132f9565b82525050565b600060a08201905061332d60008301886132aa565b61333a60208301876132cd565b61334760408301866132ea565b6133546060830185613309565b6133616080830184613309565b9695505050505050565b60008151905061337a81612798565b92915050565b60006020828403121561339657613395612617565b5b60006133a48482850161336b565b91505092915050565b600081905092915050565b60006133c3826126dc565b6133cd81856133ad565b93506133dd8185602086016126f8565b80840191505092915050565b60006133f582856133b8565b915061340182846133b8565b91508190509392505050565b7f4f776e61626c653a206e6577206f776e657220697320746865207a65726f206160008201527f6464726573730000000000000000000000000000000000000000000000000000602082015250565b60006134696026836126e7565b91506134748261340d565b604082019050919050565b600060208201905081810360008301526134988161345c565b9050919050565b7f4e487b7100000000000000000000000000000000000000000000000000000000600052601260045260246000fd5b60006134d98261278e565b91506134e48361278e565b9250826134f4576134f361349f565b5b828206905092915050565b60006040820190506135146000830185612ca1565b6135216020830184612823565b9392505050565b7f4552433732313a207472616e736665722066726f6d20696e636f72726563742060008201527f6f776e6572000000000000000000000000000000000000000000000000000000602082015250565b60006135846025836126e7565b915061358f82613528565b604082019050919050565b600060208201905081810360008301526135b381613577565b9050919050565b7f4552433732313a207472616e7366657220746f20746865207a65726f2061646460008201527f7265737300000000000000000000000000000000000000000000000000000000602082015250565b60006136166024836126e7565b9150613621826135ba565b604082019050919050565b6000602082019050818103600083015261364581613609565b9050919050565b7f4f776e61626c653a2063616c6c6572206973206e6f7420746865206f776e6572600082015250565b60006136826020836126e7565b915061368d8261364c565b602082019050919050565b600060208201905081810360008301526136b181613675565b9050919050565b7f4552433732313a20617070726f766520746f2063616c6c657200000000000000600082015250565b60006136ee6019836126e7565b91506136f9826136b8565b602082019050919050565b6000602082019050818103600083015261371d816136e1565b9050919050565b7f4552433732313a207472616e7366657220746f206e6f6e20455243373231526560008201527f63656976657220696d706c656d656e7465720000000000000000000000000000602082015250565b60006137806032836126e7565b915061378b82613724565b604082019050919050565b600060208201905081810360008301526137af81613773565b9050919050565b7f45524337323155524953746f726167653a2055524920736574206f66206e6f6e60008201527f6578697374656e7420746f6b656e000000000000000000000000000000000000602082015250565b6000613812602e836126e7565b915061381d826137b6565b604082019050919050565b6000602082019050818103600083015261384181613805565b9050919050565b60008190508160005260206000209050919050565b60006020601f8301049050919050565b600082821b905092915050565b6000600883026138aa7fffffffffffffffffffffffffffffffffffffffffffffffffffffffffffffffff8261386d565b6138b4868361386d565b95508019841693508086168417925050509392505050565b6000819050919050565b60006138f16138ec6138e78461278e565b6138cc565b61278e565b9050919050565b6000819050919050565b61390b836138d6565b61391f613917826138f8565b84845461387a565b825550505050565b600090565b613934613927565b61393f818484613902565b505050565b5b818110156139635761395860008261392c565b600181019050613945565b5050565b601f8211156139a85761397981613848565b6139828461385d565b81016020851015613991578190505b6139a561399d8561385d565b830182613944565b50505b505050565b600082821c905092915050565b60006139cb600019846008026139ad565b1980831691505092915050565b60006139e483836139ba565b9150826002028217905092915050565b6139fd826126dc565b67ffffffffffffffff811115613a1657613a156128e8565b5b613a208254612e72565b613a2b828285613967565b600060209050601f831160018114613a5e5760008415613a4c578287015190505b613a5685826139d8565b865550613abe565b601f198416613a6c86613848565b60005b82811015613a9457848901518255600182019150602085019450602081019050613a6f565b86831015613ab15784890151613aad601f8916826139ba565b8355505b6001600288020188555050505b505050505050565b600081519050919050565b600082825260208201905092915050565b6000613aed82613ac6565b613af78185613ad1565b9350613b078185602086016126f8565b613b1081612722565b840191505092915050565b6000608082019050613b306000830187612823565b613b3d6020830186612823565b613b4a60408301856128b9565b8181036060830152613b5c8184613ae2565b905095945050505050565b600081519050613b768161264d565b92915050565b600060208284031215613b9257613b91612617565b5b6000613ba084828501613b67565b91505092915050565b7f4552433732313a206d696e7420746f20746865207a65726f2061646472657373600082015250565b6000613bdf6020836126e7565b9150613bea82613ba9565b602082019050919050565b60006020820190508181036000830152613c0e81613bd2565b9050919050565b7f4552433732313a20746f6b656e20616c7265616479206d696e74656400000000600082015250565b6000613c4b601c836126e7565b9150613c5682613c15565b602082019050919050565b60006020820190508181036000830152613c7a81613c3e565b905091905056fea2646970667358221220c96d228b0294896907240f858bfde8bb0f0aa98a5d9a113341ce5da527397f7864736f6c63430008140033",
  "devdoc": {
    "events": {
      "Approval(address,address,uint256)": {
        "details": "Emitted when `owner` enables `approved` to manage the `tokenId` token."
      },
      "ApprovalForAll(address,address,bool)": {
        "details": "Emitted when `owner` enables or disables (`approved`) `operator` to manage all of its assets."
      },
      "BatchMetadataUpdate(uint256,uint256)": {
        "details": "This event emits when the metadata of a range of tokens is changed. So that the third-party platforms such as NFT market could timely update the images and related attributes of the NFTs."
      },
      "MetadataUpdate(uint256)": {
        "details": "This event emits when the metadata of a token is changed. So that the third-party platforms such as NFT market could timely update the images and related attributes of the NFT."
      },
      "Transfer(address,address,uint256)": {
        "details": "Emitted when `tokenId` token is transferred from `from` to `to`."
      }
    },
    "kind": "dev",
    "methods": {
      "approve(address,uint256)": {
        "details": "See {IERC721-approve}."
      },
      "balanceOf(address)": {
        "details": "See {IERC721-balanceOf}."
      },
      "getApproved(uint256)": {
        "details": "See {IERC721-getApproved}."
      },
      "isApprovedForAll(address,address)": {
        "details": "See {IERC721-isApprovedForAll}."
      },
      "name()": {
        "details": "See {IERC721Metadata-name}."
      },
      "owner()": {
        "details": "Returns the address of the current owner."
      },
      "ownerOf(uint256)": {
        "details": "See {IERC721-ownerOf}."
      },
      "renounceOwnership()": {
        "details": "Leaves the contract without owner. It will not be possible to call `onlyOwner` functions. Can only be called by the current owner. NOTE: Renouncing ownership will leave the contract without an owner, thereby disabling any functionality that is only available to the owner."
      },
      "safeTransferFrom(address,address,uint256)": {
        "details": "See {IERC721-safeTransferFrom}."
      },
      "safeTransferFrom(address,address,uint256,bytes)": {
        "details": "See {IERC721-safeTransferFrom}."
      },
      "setApprovalForAll(address,bool)": {
        "details": "See {IERC721-setApprovalForAll}."
      },
      "supportsInterface(bytes4)": {
        "details": "See {IERC165-supportsInterface}"
      },
      "symbol()": {
        "details": "See {IERC721Metadata-symbol}."
      },
      "tokenURI(uint256)": {
        "details": "See {IERC721Metadata-tokenURI}."
      },
      "transferFrom(address,address,uint256)": {
        "details": "See {IERC721-transferFrom}."
      },
      "transferOwnership(address)": {
        "details": "Transfers ownership of the contract to a new account (`newOwner`). Can only be called by the current owner."
      }
    },
    "version": 1
  },
  "userdoc": {
    "kind": "user",
    "methods": {},
    "version": 1
  },
  "storageLayout": {
    "storage": [
      {
        "astId": 320,
        "contract": "contracts/RandomIpfsNft.sol:RandomIpfsNft",
        "label": "_name",
        "offset": 0,
        "slot": "0",
        "type": "t_string_storage"
      },
      {
        "astId": 322,
        "contract": "contracts/RandomIpfsNft.sol:RandomIpfsNft",
        "label": "_symbol",
        "offset": 0,
        "slot": "1",
        "type": "t_string_storage"
      },
      {
        "astId": 326,
        "contract": "contracts/RandomIpfsNft.sol:RandomIpfsNft",
        "label": "_owners",
        "offset": 0,
        "slot": "2",
        "type": "t_mapping(t_uint256,t_address)"
      },
      {
        "astId": 330,
        "contract": "contracts/RandomIpfsNft.sol:RandomIpfsNft",
        "label": "_balances",
        "offset": 0,
        "slot": "3",
        "type": "t_mapping(t_address,t_uint256)"
      },
      {
        "astId": 334,
        "contract": "contracts/RandomIpfsNft.sol:RandomIpfsNft",
        "label": "_tokenApprovals",
        "offset": 0,
        "slot": "4",
        "type": "t_mapping(t_uint256,t_address)"
      },
      {
        "astId": 340,
        "contract": "contracts/RandomIpfsNft.sol:RandomIpfsNft",
        "label": "_operatorApprovals",
        "offset": 0,
        "slot": "5",
        "type": "t_mapping(t_address,t_mapping(t_address,t_bool))"
      },
      {
        "astId": 1371,
        "contract": "contracts/RandomIpfsNft.sol:RandomIpfsNft",
        "label": "_tokenURIs",
        "offset": 0,
        "slot": "6",
        "type": "t_mapping(t_uint256,t_string_storage)"
      },
      {
        "astId": 161,
        "contract": "contracts/RandomIpfsNft.sol:RandomIpfsNft",
        "label": "_owner",
        "offset": 0,
        "slot": "7",
        "type": "t_address"
      },
      {
        "astId": 3175,
        "contract": "contracts/RandomIpfsNft.sol:RandomIpfsNft",
        "label": "s_requestIdToSender",
        "offset": 0,
        "slot": "8",
        "type": "t_mapping(t_uint256,t_address)"
      },
      {
        "astId": 3178,
        "contract": "contracts/RandomIpfsNft.sol:RandomIpfsNft",
        "label": "s_dogTokenUris",
        "offset": 0,
        "slot": "9",
        "type": "t_array(t_string_storage)dyn_storage"
      },
      {
        "astId": 3182,
        "contract": "contracts/RandomIpfsNft.sol:RandomIpfsNft",
        "label": "s_tokenCounter",
        "offset": 0,
        "slot": "10",
        "type": "t_uint256"
      }
    ],
    "types": {
      "t_address": {
        "encoding": "inplace",
        "label": "address",
        "numberOfBytes": "20"
      },
      "t_array(t_string_storage)dyn_storage": {
        "base": "t_string_storage",
        "encoding": "dynamic_array",
        "label": "string[]",
        "numberOfBytes": "32"
      },
      "t_bool": {
        "encoding": "inplace",
        "label": "bool",
        "numberOfBytes": "1"
      },
      "t_mapping(t_address,t_bool)": {
        "encoding": "mapping",
        "key": "t_address",
        "label": "mapping(address => bool)",
        "numberOfBytes": "32",
        "value": "t_bool"
      },
      "t_mapping(t_address,t_mapping(t_address,t_bool))": {
        "encoding": "mapping",
        "key": "t_address",
        "label": "mapping(address => mapping(address => bool))",
        "numberOfBytes": "32",
        "value": "t_mapping(t_address,t_bool)"
      },
      "t_mapping(t_address,t_uint256)": {
        "encoding": "mapping",
        "key": "t_address",
        "label": "mapping(address => uint256)",
        "numberOfBytes": "32",
        "value": "t_uint256"
      },
      "t_mapping(t_uint256,t_address)": {
        "encoding": "mapping",
        "key": "t_uint256",
        "label": "mapping(uint256 => address)",
        "numberOfBytes": "32",
        "value": "t_address"
      },
      "t_mapping(t_uint256,t_string_storage)": {
        "encoding": "mapping",
        "key": "t_uint256",
        "label": "mapping(uint256 => string)",
        "numberOfBytes": "32",
        "value": "t_string_storage"
      },
      "t_string_storage": {
        "encoding": "bytes",
        "label": "string",
        "numberOfBytes": "32"
      },
      "t_uint256": {
        "encoding": "inplace",
        "label": "uint256",
        "numberOfBytes": "32"
      }
    }
  }
}